{
  "contractName": "Voting",
  "abi": [
    {
      "inputs": [],
      "name": "candidateCount",
      "outputs": [
        {
          "internalType": "uint256",
          "name": "",
          "type": "uint256"
        }
      ],
      "stateMutability": "view",
      "type": "function"
    },
    {
      "inputs": [
        {
          "internalType": "uint256",
          "name": "",
          "type": "uint256"
        }
      ],
      "name": "candidates",
      "outputs": [
        {
          "internalType": "uint256",
          "name": "id",
          "type": "uint256"
        },
        {
          "internalType": "string",
          "name": "nama_capres",
          "type": "string"
        },
        {
          "internalType": "string",
          "name": "nama_cawapres",
          "type": "string"
        },
        {
          "internalType": "uint256",
          "name": "voteCount",
          "type": "uint256"
        }
      ],
      "stateMutability": "view",
      "type": "function"
    },
    {
      "inputs": [
        {
          "internalType": "string",
          "name": "_nama_capres",
          "type": "string"
        },
        {
          "internalType": "string",
          "name": "_nama_cawapres",
          "type": "string"
        }
      ],
      "name": "addCandidate",
      "outputs": [],
      "stateMutability": "nonpayable",
      "type": "function"
    },
    {
      "inputs": [
        {
          "internalType": "uint256",
          "name": "_id",
          "type": "uint256"
        }
      ],
      "name": "getCandidate",
      "outputs": [
        {
          "internalType": "uint256",
          "name": "",
          "type": "uint256"
        },
        {
          "internalType": "string",
          "name": "",
          "type": "string"
        },
        {
          "internalType": "string",
          "name": "",
          "type": "string"
        },
        {
          "internalType": "uint256",
          "name": "",
          "type": "uint256"
        }
      ],
      "stateMutability": "view",
      "type": "function"
    }
  ],
  "bytecode": "0x608060405234801561001057600080fd5b5061091f806100206000396000f3fe608060405234801561001057600080fd5b506004361061004c5760003560e01c806326541b56146100515780633477ee2e1461006d57806335b8e820146100a0578063a9a981a3146100d3575b600080fd5b61006b6004803603810190610066919061057f565b6100f1565b005b610087600480360381019061008291906105eb565b610196565b6040516100979493929190610677565b60405180910390f35b6100ba60048036038101906100b591906105eb565b6102d6565b6040516100ca9493929190610677565b60405180910390f35b6100db610459565b6040516100e8919061065c565b60405180910390f35b60016000815480929190610104906107eb565b9190505550604051806080016040528060015481526020018381526020018281526020016000815250600080600154815260200190815260200160002060008201518160000155602082015181600101908051906020019061016792919061045f565b50604082015181600201908051906020019061018492919061045f565b50606082015181600301559050505050565b60006020528060005260406000206000915090508060000154908060010180546101bf90610788565b80601f01602080910402602001604051908101604052809291908181526020018280546101eb90610788565b80156102385780601f1061020d57610100808354040283529160200191610238565b820191906000526020600020905b81548152906001019060200180831161021b57829003601f168201915b50505050509080600201805461024d90610788565b80601f016020809104026020016040519081016040528092919081815260200182805461027990610788565b80156102c65780601f1061029b576101008083540402835291602001916102c6565b820191906000526020600020905b8154815290600101906020018083116102a957829003601f168201915b5050505050908060030154905084565b60006060806000806000808781526020019081526020016000206040518060800160405290816000820154815260200160018201805461031590610788565b80601f016020809104026020016040519081016040528092919081815260200182805461034190610788565b801561038e5780601f106103635761010080835404028352916020019161038e565b820191906000526020600020905b81548152906001019060200180831161037157829003601f168201915b505050505081526020016002820180546103a790610788565b80601f01602080910402602001604051908101604052809291908181526020018280546103d390610788565b80156104205780601f106103f557610100808354040283529160200191610420565b820191906000526020600020905b81548152906001019060200180831161040357829003601f168201915b50505050508152602001600382015481525050905080600001518160200151826040015183606001519450945094509450509193509193565b60015481565b82805461046b90610788565b90600052602060002090601f01602090048101928261048d57600085556104d4565b82601f106104a657805160ff19168380011785556104d4565b828001600101855582156104d4579182015b828111156104d35782518255916020019190600101906104b8565b5b5090506104e191906104e5565b5090565b5b808211156104fe5760008160009055506001016104e6565b5090565b6000610515610510846106ef565b6106ca565b90508281526020810184848401111561052d57600080fd5b610538848285610746565b509392505050565b600082601f83011261055157600080fd5b8135610561848260208601610502565b91505092915050565b600081359050610579816108d2565b92915050565b6000806040838503121561059257600080fd5b600083013567ffffffffffffffff8111156105ac57600080fd5b6105b885828601610540565b925050602083013567ffffffffffffffff8111156105d557600080fd5b6105e185828601610540565b9150509250929050565b6000602082840312156105fd57600080fd5b600061060b8482850161056a565b91505092915050565b600061061f82610720565b610629818561072b565b9350610639818560208601610755565b610642816108c1565b840191505092915050565b6106568161073c565b82525050565b6000602082019050610671600083018461064d565b92915050565b600060808201905061068c600083018761064d565b818103602083015261069e8186610614565b905081810360408301526106b28185610614565b90506106c1606083018461064d565b95945050505050565b60006106d46106e5565b90506106e082826107ba565b919050565b6000604051905090565b600067ffffffffffffffff82111561070a57610709610892565b5b610713826108c1565b9050602081019050919050565b600081519050919050565b600082825260208201905092915050565b6000819050919050565b82818337600083830152505050565b60005b83811015610773578082015181840152602081019050610758565b83811115610782576000848401525b50505050565b600060028204905060018216806107a057607f821691505b602082108114156107b4576107b3610863565b5b50919050565b6107c3826108c1565b810181811067ffffffffffffffff821117156107e2576107e1610892565b5b80604052505050565b60006107f68261073c565b91507fffffffffffffffffffffffffffffffffffffffffffffffffffffffffffffffff82141561082957610828610834565b5b600182019050919050565b7f4e487b7100000000000000000000000000000000000000000000000000000000600052601160045260246000fd5b7f4e487b7100000000000000000000000000000000000000000000000000000000600052602260045260246000fd5b7f4e487b7100000000000000000000000000000000000000000000000000000000600052604160045260246000fd5b6000601f19601f8301169050919050565b6108db8161073c565b81146108e657600080fd5b5056fea2646970667358221220b4a700e6c5eb68c12bad60c6c24c28916555485c4d11f54691443a429b20386c64736f6c63430008010033",
  "immutableReferences": {},
  "source": "// SPDX-License-Identifier: GPL-3.0\n\npragma solidity >=0.5.0 <0.9.0;\n\ncontract Voting {\n\n    // struct Candidate {\n    //     uint id;\n    //     string name;\n    //     uint voteCount;\n    //     string details;\n    //     string election_id;\n    // }\n\n    struct Candidate {\n        uint id;\n        string nama_capres;\n        string nama_cawapres;\n        uint voteCount;\n    }\n\n    mapping(uint => Candidate) public candidates;\n\n    uint public candidateCount;\n\n    function addCandidate(string memory _nama_capres, string memory _nama_cawapres) public {\n        candidateCount++;\n        candidates[candidateCount] = Candidate(candidateCount, _nama_capres, _nama_cawapres, 0);\n    }\n\n    function getCandidate(uint _id) public view returns(uint, string memory, string memory, uint) {\n        Candidate memory dataCandidate = candidates[_id];\n        return (dataCandidate.id, dataCandidate.nama_capres, dataCandidate.nama_cawapres, dataCandidate.voteCount);\n    }\n\n    // struct Voter {\n    //     uint id;\n    //     string nama;\n    //     string nik;\n    //     bool isVoting;\n    // }\n\n    // mapping(uint => Candidate) public candidates;\n    // mapping(address => bool) public voters;\n\n    // uint public candidatesCount;\n\n    // string public candidate = \"I am superhero\";\n\n    // event votedEvent(\n    //     uint indexed _candidateId\n    // );\n\n    // function setCandidate(string memory _candidate) public {\n    //     candidate = _candidate;\n    // }\n\n    // function addCandidate(string memory _name, string memory _details, string memory _election_id) public {\n    //     candidatesCount++;\n    //     candidates[candidatesCount] = Candidate(candidatesCount, _name, 0, _details, _election_id);\n    // }\n\n    // function vote(uint _candidateId) public {\n    //     require(!voters[msg.sender]);\n\n    //     require(_candidateId > 0 && _candidateId <= candidatesCount);\n        \n    //     voters[msg.sender] = true;\n        \n    //     candidates[_candidateId].voteCount++;\n    \n    //     emit votedEvent(_candidateId);\n    // }\n\n}",
  "sourcePath": "/home/nurrofiq/Documents/POLINES/SEMESTER 6/TA/sourceCode/E-Voting Dapps Ethereum/Tugas Akhir/smart_contract/contracts/Voting.sol",
  "compiler": {
    "name": "solc",
    "version": "0.8.1+commit.df193b15.Emscripten.clang"
  },
  "schemaVersion": "3.4.14",
  "updatedAt": "2023-08-25T15:06:42.330Z",
  "devdoc": {
    "kind": "dev",
    "methods": {},
    "version": 1
  },
  "userdoc": {
    "kind": "user",
    "methods": {},
    "version": 1
  }
}